:03000000020FEC00
:0C0FEC00787FE4F6D8FD758136020FC254
:100FC200120F841210008F36120CA49209A20992F9
:090FD2000A120FA7120FDB80EADE
:100DAF000A0A3E3E415438395335323A204D4F40AE
:100DBF0035312069732070726573656E7465642EAA
:100DCF000A003E3E415438395335323A204261755C
:100DDF00643D31393230302E0A0A002C25782C0030
:100DEF003E3E415438395335323A20436F646520C3
:100DFF00697320646F776E6C6F6164656420636FD5
:0B0E0F006D706C6574656C79210A0041
:100F8400758920759852758780758DFD758BFDD296
:100F94008E7BFF7A0D79AF120F387BFF7A0D79D1F2
:030FA400020F3801
:080FF8003099FDC2998F992286
:081000003098FDC298AF99225F
:100F32007B007A0079228B1C8A1D891EAB1CAA1D9C
:100F4200A91E120B5C6013051EE51E7002051D141E
:0B0F5200F9120B5CFF120FF880E22286
:100CA4008F1CC20AE51CB43A0F752C01E4FF121024
:100CB40008E4F5357F3A8016E51CB40A17E4F52CF0
:100CC400F52DF52EF52FF530F531F5327F6E120F37
:100CD400F8A20A22E53314603314605314607414C8
:100CE4007003020D8D24046003020DAC7A00792D8B
:100CF400120EDB0534E534B4020DE52D2430FF1269
:100D04000FF87F011210087F4C020DA97B007A00B6
:100D1400792EAD1C120E1AE52F2430FF120FF805A0
:100D240034E534B404057F021210087F4180767ADA
:100D3400007930120EDB0534E534B40212E530B428
:100D440001047F048006E53070057F031210087FDC
:100D5400548052E5307051E53420E003E4F5317BF2
:100D6400007A007931AD1C120EDFE53430E002D296
:100D74000A0534E52D75F002A4B53409E4B5F0058F
:100D84007F041210087F44801C7B007A007932AD06
:100D94001C120EDF0534E534B40208E532B4FF0357
:0B0DA4007535017F43120FF8A20A22F0
:061008008F33E4F53422F1
:100EDB007B00AD1C8B1D8A1E891FEDC39430400C0B
:100EEB00EDD39439500674D02DFD8022EDC394417F
:100EFB00400CEDD394465006ED24C9FD8010EDC394
:100F0B009461400AEDD394665004ED24A9FDAB1D0A
:100F1B00AA1EA91F120B5CC454F0120B97AB1DAA8F
:070F2B001EA91FED020B756A
:100E1A008B1D8A1E891FEDC39430400CEDD3943983
:100E2A00500674D02DFD8022EDC39441400CEDD3C1
:100E3A0094465006ED24C9FD8010EDC39461400A22
:100E4A00EDD394665004ED24A9FDAB1DAA1EA91F7B
:100E5A00120BA9C4F8540FC868FFE5F0C454F0484F
:100E6A008FF0120C0CAF05AB1DAA1EA91FE48FF060
:030E7A00020BD494
:100FA700300A177F57120FF8E52EF583852F82E554
:0B0FB70031F0052FE52F7002052E22FF
:100E7D00E53560597F56120FF8758320758200E0B5
:100E8D00750BFF750C0D750DEA85830E7B007A00D1
:100E9D00792212085C120F32750BFF750C0D750D52
:100EAD00EA85820E7B007A00792212085C120F32DD
:100EBD00750BFF750C0D750DEAF50E7B007A00793B
:0E0ECD002212085C120F32A3E583B421B22278
:100FDB00E535600C7BFF7A0D79EF120F380220009C
:010FEB0022E3
:100B5C00BB010689828A83E0225002E722BBFE0297
:090B6C00E32289828A83E49322CA
:100B7500BB010989828A83F8E028F022500327F710
:100B850022BBFE05F8E328F3228A838982F8E493E1
:020B9500282214
:100B9700BB010689828A83F0225002F722BBFE013D
:020BA700F32237
:100BA900BB010A89828A83E0F5F0A3E02250068717
:100BB900F009E71922BBFE07E3F5F009E3192289D9
:0B0BC900828A83E493F5F0740193220C
:100BD400BB010789828A83020C58500B09C5F02790
:100BE400F7C5F01937F722BBFE0D09F8E325F0F33A
:100BF400C5F019E338F322F889828A8374019325B6
:080C0400F0C5F0F8E49338227A
:100C0C00BB010A89828A83F0E5F0A3F0225006F733
:0F0C1C0009A7F01922BBFE06F3E5F009F3192230
:10080000E517240BF8E60517227808300702780B65
:10081000E475F001120C6E020B5C2000EB7F2ED20F
:10082000008018EF540F2490D43440D4FF30040BD0
:10083000EF24BFB41A0050032461FFE518600215CD
:1008400018051BE51B7002051A30070D7808E475C2
:10085000F001120C6EEF020B97020F5D7403D207CA
:100860008003E4C207F5178B088A09890AE4F518A2
:10087000F51AF51BE51860077F2012083B80F57517
:1008800019FFC201C200C202C203C205C206C208E9
:10089000120809FF700D3007057F0012084CAF1BCE
:1008A000AE1A22B4255FC2D5C204120809FF24D0B3
:1008B000B40A00501A75F00A781830D50508B6FF4A
:1008C0000106C6A426F620D5047002D20380D924DE
:1008D000CFB41A00EF5004C2E5D204020A4CD20190
:1008E00080C6D20080C0D20280BCD2D580BAD205E8
:1008F00080B47F2012083B2002077401B518004025
:10090000F1120800FF12083B020874D208D20680D8
:1009100095120800FB120800FA120800F94A4B7001
:1009200006791D7A0B7BFF20022EE518602A7E00D7
:100930008E82758300120C2B60060EEE651970F026
:10094000C2D5EBC0E0EAC0E0E9C0E0EE120A93D005
:10095000E0F9D0E0FAD0E0FB120B5CFF60AAEBC03C
:10096000E0EAC0E0E9C0E012083BD0E02401F9D0A1
:10097000E03400FAD0E0FBE5190460DCD519D98039
:10098000877BFF7A0A798FD202809C791080027966
:1009900008C206C2088008D2D5790A8004790AC242
:1009A000D5E519047002F519E4FAFDFEFF120800FE
:1009B000FC7B08200113120800FD7B1030000A1296
:1009C0000800FE120800FF7B20EC3382D592D55040
:1009D00013C3E43000069FFFE49EFEE42001039D64
:1009E000FDE49CFCE4CBF8C201EC700CCFCECDCC86
:1009F000E824F8F870F38017C3EF33FFEE33FEED11
:100A000033FDEC33FCEB33FB994002FB0FD8E9EBF1
:100A1000300105F8D0E0C448B201C0E00AEC4D4E08
:100A20004F78207B0070C2EAB5190040BCC0E012CC
:100A30000A95D0F0D0E0200104C4C0E0C4B201C0E7
:100A4000F0120824D0F0D5F0EB020874120C7E09E5
:100A50001153098B5808E24C08DE42098F4F099761
:0F0A60004409974908F743099D550981460981C3
:100A6F00450981470B3D5008E62D08EA2E090D2B4D
:100A7F0008EE23090B200B262A08A64800000905BB
:100A8F003F3F3F00790AA2D5200314300509B91062
:100A9F00020404B9080104A2D52006025001042063
:100AAF0002689202B518005034C0E07F203003195D
:100ABF007F30A20272067205500F120AECC202C2F8
:100ACF0006C205C2087F30800F300503E9C0E0126F
:100ADF00083B300503D0E0F9D0E0B518CC3005174E
:100AEF007F30B9100C12083B7F583004077F788095
:100AFF0003B9080312083B3002057F2D02083B7F24
:100B0F00202008F87F2B2006F322920280CF286E38
:100B1F00756C6C2900D2011208003001F8C20178FF
:100B2F001830D50108F60208A62D5043495812086F
:100B3F00002403B405004001E4900B389312082CF5
:0D0B4F00743A12082CD20375180402098BA9
:100C2B00BB010CE58229F582E5833AF583E022507E
:100C3B0006E92582F8E622BBFE06E92582F8E222C8
:0D0C4B00E58229F582E5833AF583E49322E2
:100C5800C5F0F8A3E028F0C5F0F8E5821582700227
:060C68001583E038F022C4
:100C6E00FAE6FB0808E6F925F0F618E6CA3AF62287
:100C7E00D083D082F8E4937012740193700DA3A305
:100C8E0093F8740193F5828883E473740293686019
:060C9E00EFA3A3A380DF19
:100F5D00EFB40A07740D120F68740A309811A8992E
:100F6D00B8130CC2983098FDA899C298B811F630F4
:070F7D0099FDC299F59922CC
:00000001FF
