:1000000075815F758920759852758780758DFD752E
:100010008BFDD28E9000D97400933099FDC299F572
:1000200099A370F39020007475F0A37481F0A37409
:100030005FF0A37478F0A37402F0A37479F0A37452
:1000400000F0A37411F0A3740DF0A37411F0A37465
:1000500019F0A37480F0A374FAF0A374E9F0A37408
:1000600090F0A37420F0A37424F0A37493F0A3740D
:10007000C4F0A37448F0A37490F0A37400F0A374C8
:1000800000F0A374F0F0A37422F0A374B9F0A37489
:1000900003F0A37405F0A37478F0A37402F0A374C2
:1000A00079F0A37400F0A37422F0A37408F0A37491
:1000B00009F0A37422F0A37407F0A3740BF0A374E7
:1000C0000DF0A3740EF09000D97400933099FDC226
:1000D00099F599A370F30220004E677579656E203B
:0D00E0004368696E6820546875790D0A0048
:00000001FF
