:100B5C000A54686973206973207468652055415282
:100B6C00542074657374696E672070726F6772615C
:100B7C006D3A20426175643D0025642E0D0A0038E3
:100B8C003035312077696C6C206563686F73206336
:100B9C00686172616374657273207468617420613A
:100BAC0072652073656E7420746F20383035312077
:100BBC007468726F756768205258442070696E2E85
:100BCC000D0A004D6F72656F7665722C2050312EB8
:100BDC003020616C736F20746F67676C657320696C
:100BEC00747320737461746520616674657220611E
:100BFC0020636861726163746572207265636569F4
:100C0C007665642E0D0A004E6F772C20796F752057
:100C1C0073686F756C642074727920746F207479AA
:100C2C00706520616E642073656E6420736F6D65F2
:100C3C00206368617261637465727320746F20380D
:090C4C003035312E2E2E0D0A0068
:100CE300120D847BFF7A0B795C120D5F750BFF7518
:100CF3000C0B750D85750E4B750F007B007A007913
:100D03002212085C7B007A007922120D5F7BFF7A46
:100D13000B798B120D5F7BFF7A0B79CF120D5F7B03
:100D2300FF7A0C7913120D5F120DAA120DA2A29075
:050D3300B3929080F373
:100D8400758920759852758780758DFD758BFDD298
:020D94008E22AD
:080DA2003099FDC2998F9922DE
:100D5F008B088A09890AAB08AA09A90A120C5560DF
:100D6F0013050AE50A7002050914F9120C55FF1252
:050D7F000DA280E2223C
:080DAA003098FDC298AF9922B8
:03000000020D9658
:0C0D9600787FE4F6D8FD75812B020CE399
:100C5500BB010689828A83E0225002E722BBFE029D
:090C6500E32289828A83E49322D0
:10080000E517240BF8E60517227808300702780B65
:10081000E475F001120CAD020C552000EB7F2ED2D6
:10082000008018EF540F2490D43440D4FF30040BD0
:10083000EF24BFB41A0050032461FFE518600215CD
:1008400018051BE51B7002051A30070D7808E475C2
:10085000F001120CADEF020C9B020D387403D207AD
:100860008003E4C207F5178B088A09890AE4F518A2
:10087000F51AF51BE51860077F2012083B80F57517
:1008800019FFC201C200C202C203C205C206C208E9
:10089000120809FF700D3007057F0012084CAF1BCE
:1008A000AE1A22B4255FC2D5C204120809FF24D0B3
:1008B000B40A00501A75F00A781830D50508B6FF4A
:1008C0000106C6A426F620D5047002D20380D924DE
:1008D000CFB41A00EF5004C2E5D204020A4CD20190
:1008E00080C6D20080C0D20280BCD2D580BAD205E8
:1008F00080B47F2012083B2002077401B518004025
:10090000F1120800FF12083B020874D208D20680D8
:1009100095120800FB120800FA120800F94A4B7001
:1009200006791D7A0B7BFF20022EE518602A7E00D7
:100930008E82758300120C6E60060EEE651970F0E3
:10094000C2D5EBC0E0EAC0E0E9C0E0EE120A93D005
:10095000E0F9D0E0FAD0E0FB120C55FF60AAEBC042
:10096000E0EAC0E0E9C0E012083BD0E02401F9D0A1
:10097000E03400FAD0E0FBE5190460DCD519D98039
:10098000877BFF7A0A798FD202809C791080027966
:1009900008C206C2088008D2D5790A8004790AC242
:1009A000D5E519047002F519E4FAFDFEFF120800FE
:1009B000FC7B08200113120800FD7B1030000A1296
:1009C0000800FE120800FF7B20EC3382D592D55040
:1009D00013C3E43000069FFFE49EFEE42001039D64
:1009E000FDE49CFCE4CBF8C201EC700CCFCECDCC86
:1009F000E824F8F870F38017C3EF33FFEE33FEED11
:100A000033FDEC33FCEB33FB994002FB0FD8E9EBF1
:100A1000300105F8D0E0C448B201C0E00AEC4D4E08
:100A20004F78207B0070C2EAB5190040BCC0E012CC
:100A30000A95D0F0D0E0200104C4C0E0C4B201C0E7
:100A4000F0120824D0F0D5F0EB020874120CBD09A6
:100A50001153098B5808E24C08DE42098F4F099761
:0F0A60004409974908F743099D550981460981C3
:100A6F00450981470B3D5008E62D08EA2E090D2B4D
:100A7F0008EE23090B200B262A08A64800000905BB
:100A8F003F3F3F00790AA2D5200314300509B91062
:100A9F00020404B9080104A2D52006025001042063
:100AAF0002689202B518005034C0E07F203003195D
:100ABF007F30A20272067205500F120AECC202C2F8
:100ACF0006C205C2087F30800F300503E9C0E0126F
:100ADF00083B300503D0E0F9D0E0B518CC3005174E
:100AEF007F30B9100C12083B7F583004077F788095
:100AFF0003B9080312083B3002057F2D02083B7F24
:100B0F00202008F87F2B2006F322920280CF286E38
:100B1F00756C6C2900D2011208003001F8C20178FF
:100B2F001830D50108F60208A62D5043495812086F
:100B3F00002403B405004001E4900B389312082CF5
:0D0B4F00743A12082CD20375180402098BA9
:100C6E00BB010CE58229F582E5833AF583E022503B
:100C7E0006E92582F8E622BBFE06E92582F8E22285
:0D0C8E00E58229F582E5833AF583E493229F
:100C9B00BB010689828A83F0225002F722BBFE0138
:020CAB00F32232
:100CAD00FAE6FB0808E6F925F0F618E6CA3AF62248
:100CBD00D083D082F8E4937012740193700DA3A3C6
:100CCD0093F8740193F5828883E4737402936860DA
:060CDD00EFA3A3A380DFDA
:100D3800EFB40A07740D120D43740A309811A8997C
:100D4800B8130CC2983098FDA899C298B811F6301B
:070D580099FDC299F59922F3
:00000001FF
